{
  "contractName": "Migration",
  "abi": [
    {
      "inputs": [],
      "stateMutability": "nonpayable",
      "type": "constructor"
    },
    {
      "inputs": [],
      "name": "last_completed_migrations",
      "outputs": [
        {
          "internalType": "uint256",
          "name": "",
          "type": "uint256"
        }
      ],
      "stateMutability": "view",
      "type": "function",
      "constant": true
    },
    {
      "inputs": [],
      "name": "owner",
      "outputs": [
        {
          "internalType": "address",
          "name": "",
          "type": "address"
        }
      ],
      "stateMutability": "view",
      "type": "function",
      "constant": true
    },
    {
      "inputs": [
        {
          "internalType": "uint256",
          "name": "completed",
          "type": "uint256"
        }
      ],
      "name": "setCompleted",
      "outputs": [],
      "stateMutability": "nonpayable",
      "type": "function"
    }
  ],
  "bytecode": "0x608060405234801561001057600080fd5b50336000806101000a81548173ffffffffffffffffffffffffffffffffffffffff021916908373ffffffffffffffffffffffffffffffffffffffff160217905550610301806100606000396000f3fe608060405234801561001057600080fd5b50600436106100415760003560e01c806329dcf068146100465780638da5cb5b14610064578063fdacd57614610082575b600080fd5b61004e61009e565b60405161005b9190610179565b60405180910390f35b61006c6100a4565b60405161007991906101d5565b60405180910390f35b61009c60048036038101906100979190610221565b6100c8565b005b60015481565b60008054906101000a900473ffffffffffffffffffffffffffffffffffffffff1681565b60008054906101000a900473ffffffffffffffffffffffffffffffffffffffff1673ffffffffffffffffffffffffffffffffffffffff163373ffffffffffffffffffffffffffffffffffffffff1614610156576040517f08c379a000000000000000000000000000000000000000000000000000000000815260040161014d906102ab565b60405180910390fd5b8060018190555050565b6000819050919050565b61017381610160565b82525050565b600060208201905061018e600083018461016a565b92915050565b600073ffffffffffffffffffffffffffffffffffffffff82169050919050565b60006101bf82610194565b9050919050565b6101cf816101b4565b82525050565b60006020820190506101ea60008301846101c6565b92915050565b600080fd5b6101fe81610160565b811461020957600080fd5b50565b60008135905061021b816101f5565b92915050565b600060208284031215610237576102366101f0565b5b60006102458482850161020c565b91505092915050565b600082825260208201905092915050565b7f52657374726963746564204279204f776e657200000000000000000000000000600082015250565b600061029560138361024e565b91506102a08261025f565b602082019050919050565b600060208201905081810360008301526102c481610288565b905091905056fea264697066735822122017e97a788db9769d4ce209cc90cd4b85f4f8f698f4f0242c9b0ba9984186d9db64736f6c634300080d0033",
  "immutableReferences": {},
  "source": "// SPDX-License-Identifier: MIT\r\npragma solidity >=0.4.22 <0.9.0;\r\n\r\ncontract Migration {\r\n    address public owner;\r\n    uint public last_completed_migrations;\r\n\r\n    constructor() {\r\n        owner = msg.sender;\r\n    }\r\n\r\n    modifier restricted() {\r\n        require(msg.sender == owner, \"Restricted By Owner\");\r\n        _;\r\n    }\r\n\r\n    function setCompleted(uint completed) public restricted {\r\n        last_completed_migrations = completed;\r\n    }\r\n}\r\n",
  "sourcePath": "D:\\Practice\\DApp Development\\dapp-react-vite-template-with-tailwind\\contracts\\Migration.sol",
  "compiler": {
    "name": "solc",
    "version": "0.8.13+commit.abaa5c0e.Emscripten.clang"
  },
  "schemaVersion": "3.4.16",
  "updatedAt": "2024-01-03T11:25:01.966Z",
  "networkType": "ethereum",
  "devdoc": {
    "kind": "dev",
    "methods": {},
    "version": 1
  },
  "userdoc": {
    "kind": "user",
    "methods": {},
    "version": 1
  }
}