{
  "contractName": "Tickets",
  "abi": [
    {
      "inputs": [],
      "stateMutability": "nonpayable",
      "type": "constructor"
    },
    {
      "inputs": [],
      "name": "owner",
      "outputs": [
        {
          "internalType": "address",
          "name": "",
          "type": "address"
        }
      ],
      "stateMutability": "view",
      "type": "function",
      "constant": true
    },
    {
      "inputs": [
        {
          "internalType": "uint256",
          "name": "",
          "type": "uint256"
        }
      ],
      "name": "tickets",
      "outputs": [
        {
          "internalType": "address",
          "name": "owner",
          "type": "address"
        },
        {
          "internalType": "uint256",
          "name": "price",
          "type": "uint256"
        }
      ],
      "stateMutability": "view",
      "type": "function",
      "constant": true
    },
    {
      "inputs": [
        {
          "internalType": "uint256",
          "name": "_index",
          "type": "uint256"
        }
      ],
      "name": "buyTicket",
      "outputs": [],
      "stateMutability": "payable",
      "type": "function",
      "payable": true
    }
  ],
  "bytecode": "0x608060405234801561001057600080fd5b50336000806101000a81548173ffffffffffffffffffffffffffffffffffffffff021916908373ffffffffffffffffffffffffffffffffffffffff16021790555060005b600a8110156100f3576000600182600a8110610073576100726100f9565b5b6002020160000160006101000a81548173ffffffffffffffffffffffffffffffffffffffff021916908373ffffffffffffffffffffffffffffffffffffffff16021790555067016345785d8a0000600182600a81106100d5576100d46100f9565b5b600202016001018190555080806100eb90610161565b915050610054565b506101a9565b7f4e487b7100000000000000000000000000000000000000000000000000000000600052603260045260246000fd5b7f4e487b7100000000000000000000000000000000000000000000000000000000600052601160045260246000fd5b6000819050919050565b600061016c82610157565b91507fffffffffffffffffffffffffffffffffffffffffffffffffffffffffffffffff820361019e5761019d610128565b5b600182019050919050565b610407806101b86000396000f3fe6080604052600436106100345760003560e01c806350b447121461003957806367dd74ca146100775780638da5cb5b14610093575b600080fd5b34801561004557600080fd5b50610060600480360381019061005b91906102e1565b6100be565b60405161006e92919061035e565b60405180910390f35b610091600480360381019061008c91906102e1565b610108565b005b34801561009f57600080fd5b506100a8610282565b6040516100b59190610387565b60405180910390f35b600181600a81106100ce57600080fd5b600202016000915090508060000160009054906101000a900473ffffffffffffffffffffffffffffffffffffffff16908060010154905082565b600a81108015610119575060008110155b61012257600080fd5b600073ffffffffffffffffffffffffffffffffffffffff16600182600a811061014e5761014d6103a2565b5b6002020160000160009054906101000a900473ffffffffffffffffffffffffffffffffffffffff1673ffffffffffffffffffffffffffffffffffffffff161461019657600080fd5b600181600a81106101aa576101a96103a2565b5b60020201600101543410156101be57600080fd5b33600182600a81106101d3576101d26103a2565b5b6002020160000160006101000a81548173ffffffffffffffffffffffffffffffffffffffff021916908373ffffffffffffffffffffffffffffffffffffffff16021790555060008054906101000a900473ffffffffffffffffffffffffffffffffffffffff1673ffffffffffffffffffffffffffffffffffffffff166108fc479081150290604051600060405180830381858888f1935050505015801561027e573d6000803e3d6000fd5b5050565b60008054906101000a900473ffffffffffffffffffffffffffffffffffffffff1681565b600080fd5b6000819050919050565b6102be816102ab565b81146102c957600080fd5b50565b6000813590506102db816102b5565b92915050565b6000602082840312156102f7576102f66102a6565b5b6000610305848285016102cc565b91505092915050565b600073ffffffffffffffffffffffffffffffffffffffff82169050919050565b60006103398261030e565b9050919050565b6103498161032e565b82525050565b610358816102ab565b82525050565b60006040820190506103736000830185610340565b610380602083018461034f565b9392505050565b600060208201905061039c6000830184610340565b92915050565b7f4e487b7100000000000000000000000000000000000000000000000000000000600052603260045260246000fdfea26469706673582212206da73740c42bca2c28caf91bb70e93e67df8e560879d8087bbe0f2af17b588d764736f6c634300080d0033",
  "immutableReferences": {},
  "source": "// SPDX-License-Identifier: MIT\npragma solidity >=0.4.22 <0.9.0;\n\nuint256 constant TOTAL_TICKETS = 10;\naddress constant EMPTY_ADDRESS = address(0x0);\n\ncontract Tickets {\n    address public owner;\n\n    struct Ticket {\n        address owner;\n        uint256 price;\n    }\n\n    Ticket[TOTAL_TICKETS] public tickets;\n\n    constructor() {\n        owner = msg.sender;\n        for (uint256 i = 0; i < TOTAL_TICKETS; i++) {\n            tickets[i].owner = EMPTY_ADDRESS;\n            tickets[i].price = 1e17; //0.1 ETH\n        }\n    }\n\n    function buyTicket(uint256 _index) external payable {\n        require(_index < TOTAL_TICKETS && _index >= 0);\n        require(tickets[_index].owner == EMPTY_ADDRESS);\n        require(msg.value >= tickets[_index].price);\n\n        tickets[_index].owner = msg.sender;\n        // Transfer funds to the owner immediately\n        payable(owner).transfer(address(this).balance);\n    }\n}\n",
  "sourcePath": "D:\\Practice\\DApp Development\\dapp-react-vite-template-with-tailwind\\contracts\\Tickets.sol",
  "compiler": {
    "name": "solc",
    "version": "0.8.13+commit.abaa5c0e.Emscripten.clang"
  },
  "schemaVersion": "3.4.16",
  "updatedAt": "2024-01-03T11:25:02.488Z",
  "networkType": "ethereum",
  "devdoc": {
    "kind": "dev",
    "methods": {},
    "version": 1
  },
  "userdoc": {
    "kind": "user",
    "methods": {},
    "version": 1
  }
}